:020000040800F2
:10000000C8540020AD480008AD0E0008AF0E00082F
:10001000B30E0008B70E0008BB0E00080000000079
:10002000000000000000000000000000BF0E0008FB
:10003000C10E000800000000C30E0008C50E000835
:10004000C7480008C7480008C7480008C748000854
:10005000C7480008C7480008C7480008C748000844
:10006000C7480008C7480008C7480008C748000834
:10007000C7480008C7480008C7480008C748000824
:10008000C7480008C7480008C7480008C748000814
:10009000C7480008C7480008C7480008C748000804
:1000A000C7480008C7480008C7480008C7480008F4
:1000B000C7480008C7480008C7480008C7480008E4
:1000C000C7480008C7480008C7480008C7480008D4
:1000D000C74800083902000833070008C74800086D
:1000E000C7480008C7480008C7480008DFF80CD018
:1000F00006F072F8004800470D0B0008C8540020B5
:1001000000B587B0012144F2040004F0FDFE4FF475
:100110000070ADF8180003208DF81A0018208DF833
:100120001B0006A9FE4804F033FC4FF48060ADF8D4
:10013000180004208DF81B0006A9F94804F028FCDB
:100140004FF4E13002900020ADF80C00ADF80E0045
:10015000ADF81000ADF814000C20ADF8120002A9A3
:10016000F04804F078FF012240F22551ED4805F0F7
:100170000AF825208DF8040000208DF805008DF880
:10018000060001208DF8070001A805F02AF90121D9
:10019000E44804F0ECFF07B000BD00B587B00121D2
:1001A000480404F0BEFE0121042004F0ADFE04204A
:1001B000ADF8180003208DF81A0018208DF81B00E8
:1001C00006A9D74804F0E4FB0820ADF81800042085
:1001D0008DF81B0006A9D24804F0DAFB4FF4E13099
:1001E00002900020ADF80C00ADF80E00ADF8100044
:1001F000ADF814000C20ADF8120002A9CA4804F0B2
:100200002AFF012240F22551C74804F0BCFF2620F6
:100210008DF8040001208DF8050000208DF80600FF
:1002200001208DF8070001A805F0DBF80121BE4888
:1002300004F09DFF07B000BD10B540F22551B9484C
:1002400005F086F840B1B74805F002F8C4B221467F
:10025000B54804F0F9FF00BF10BD2DE9F047054691
:100260000E46304605F06CF980463146284605F0CA
:100270004BF9044618E004EB08002C2105F056F970
:100280008146B9F1000F03D0A9EB040000F1010889
:10029000671B04EB0801E81905F067F931462846A9
:1002A00005F032F9044600BF002CE4D1BDE8F08728
:1002B00070B504460D4600BF8021204605F032F897
:1002C0000028F9D02946204604F0BEFF70BD70B565
:1002D00005460C4604E021782846FFF7E9FF641C38
:1002E00020780028F7D170BD2DE9F04107460D4672
:1002F0000026002403F0E6FA384603F069FB03F019
:1003000011FB0646012E05D188A18648FFF7DFFFC5
:10031000BDE8F08100240DE0285D03F059FB03F0F7
:1003200001FB0646012E04D184A17E48FFF7CFFFD2
:10033000EEE7641C0F2CEFDB03F0DBFA0A2004F07D
:1003400082FA00BFE4E770B50446002500BF04E070
:1003500021460C20FFF7C8FF6D1CB5F5967FF7DB33
:1003600070BD2DE9F04F8DB006460F469046994678
:10037000DDE916AB0024002501207449887081F85E
:100380000A9081F80BA081F80C804F735EB900BF12
:10039000022505E06E48005D6C494855641C6D1CE3
:1003A000082CF7DB52E0012E0BD10024022505E0DA
:1003B0006848005D65494855641C6D1C082CF7DBD6
:1003C00044E0022E0BD10024022505E06248005DC6
:1003D0005E494855641C6D1C082CF7DB36E0032E83
:1003E0000BD10024022505E05C48005D57494855C3
:1003F000641C6D1C082CF7DB28E0042E0BD10024B4
:10040000022505E05648005D50494855641C6D1CA6
:10041000082CF7DB1AE0052E0BD10024022505E09D
:100420005048005D49494855641C6D1C082CF7DB99
:100430000CE0062E0AD10024022505E04A48005DA2
:1004400042494855641C6D1C082CF7DB00204749C5
:10045000086010E03D4845490968425C44A168468F
:1004600006F08CF869462F48FFF731FF3F480068D7
:10047000401C3E4908603D4800680F28EADB3348CD
:10048000FFF761FF0DB0BDE8F08F2DE9F04F9BB095
:100490008246504602F074F8044624B936A1214839
:1004A000FFF715FF42E137A1204602F01CFBD0F810
:1004B00010B037A1204602F016FB00690D9036A15E
:1004C000204602F010FB00690C9036A1204602F095
:1004D0000AFB00690B9036A1204602F004FB37A10D
:1004E000204602F000FB00690A9037A1204602F086
:1004F000FAFA099036A1099802F0F5FA089038A1A5
:10050000089802F0F0FA456937A1099802F0EBFA71
:10051000079033A1079802F0E6FA466936A177E022
:100520000008014000380140004400407B0D0A31C2
:100530003131313131310D0A7D0000007B0D0A323D
:1005400032323232323232320D0A7D002400002043
:10055000330000203B000020430000204B0000201F
:10056000530000205B0000206300002020000020DA
:1005700025640D0A0000000068692C6572726F72B4
:100580000D0A000064657669636554797065000042
:10059000696F744964000000726571756573744910
:1005A0006400000070726F647563744B65790000BD
:1005B000676D7443726561746500000064657669F7
:1005C00063654E616D6500006974656D73000000C0
:1005D0006368616E6E656C5F6C6566740000000038
:1005E00076616C75650000006368616E6E656C5FB6
:1005F000726967687400000063757272656E745F7B
:10060000737472656E6774685F6C65667400000071
:10061000099802F068FA0690AFF23C01069802F0E1
:1006200062FA40690590FEA1099802F05CFA049014
:10063000AFF25401049802F056FA4769FEA10998F6
:1006400002F051FA0390AFF26801039802F04BFAFE
:10065000D0F81480FBA1099802F045FA0290AFF29D
:100660008001029802F03FFAD0F81490F8480B99F4
:10067000FFF72DFE5946F648FFF729FEF4480C997E
:10068000FFF725FEF2480B99FFF721FEF0480A9983
:10069000FFF71DFEEE480A99FFF719FE2A46AFF252
:1006A00030110EA805F06AFF0EA9E948FFF70FFE0A
:1006B0003246AFF244110EA805F060FF0EA9E448DF
:1006C000FFF705FE4246AFF258110EA805F056FF9F
:1006D0000EA9DF48FFF7FBFDAFF26C110EA8059ADB
:1006E00005F04CFF0EA9DA48FFF7F1FD3A46AFF2EC
:1006F00080110EA805F042FF0EA9D548FFF7E7FDCF
:10070000B9F1010F08D12B46CDE9006939464046C1
:10071000059AFFF726FE05E00020CE4948700846FE
:10072000FFF711FE204600F0EAFF00BF1BB0BDE856
:10073000F08F10B540F22551C74804F009FE00289B
:1007400052D0C54804F084FDC4B27B2C0ED10120E8
:10075000C2490870C2480078401CC1490870084668
:100760000078012802D10020BE490880BB480078EB
:1007700040B3BC4800884FF4FA6190FBF1F201FBF2
:100780001200B9490C54B7480088401CB54908808C
:100790007D2C17D1B2480078401EB1490870084638
:1007A000007878B90120B14908700020AB49087081
:1007B000AC480088210190FBF1F201FB1200AA492C
:1007C00000220A54A948007868B1A949A648FFF751
:1007D00044FDA5499E48FFF77AFDA348FFF755FE63
:1007E0000020A249087000BF10BD00BF704700BFC5
:1007F000994A128802F04002002AF9D0C2B2964B00
:100800001B1D1A8070472DE9FC5F04468946994BF1
:10081000994A9A499A4800F0E1FC9748007805F017
:1008200014FA0746974A984B05F087F905460E4695
:100830009348007805F009FA2A463346CDE90001CD
:1008400005F0D4F8824605F089FA206089480078DE
:1008500005F0FBF982468B4A8B4B05F06EF9054695
:100860000E468648007805F0F0F907462A463346DA
:1008700005F0BCF8CDE9000105F070FAC9F80000F8
:10088000BDE8FC9F2DE9F04F87B00024A246002070
:1008900004907E4F8046642420E07D4850F8241068
:1008A000A4F164007A4A42F820107A4850F82410E3
:1008B000A4F16400774A42F82010754850F82400EB
:1008C000B84202D2724850F82470714850F824009F
:1008D000404502D96E4850F82480641CB4F5FA7F74
:1008E000DBDB4FF4C8747FE0601E694951F820508B
:1008F00000BF694800680128FBD005A9072003F064
:1009000036FB9DF814008007800B9DF8151040EA17
:1009100001209DF8161008435D4941F824009DF818
:1009200017008007800B9DF8181040EA01209DF801
:1009300019100843574941F82400554850F824003D
:10094000A8421DD9524951F82410481B05F067F9F7
:100950008346A8EB070005F062F9814649465846F0
:1009600005F006F883464D49584604F0CFFF83460C
:10097000584605F077F9361A002E1EDA00261CE0DC
:10098000434951F82410681A05F049F98346A8EB49
:10099000070005F044F981464946584604F0E8FF4F
:1009A00083463E49584604F0B1FF8346584605F059
:1009B00059F90644FF2E00DDFF263948007801284A
:1009C00011D13848007801280DD1374800688228B5
:1009D00009DA36480068662805DA334890F800A03E
:1009E000324800780490641CB4F5FA7FFFF67CAFBF
:1009F0002B482D492B4A2D4BCDE900210290244A4A
:100A00002B480168234803F061FC2A482A490968F9
:100A100040F821A028480068401C274908604DE0A4
:100A200063757272656E745F737472656E677468F5
:100A30005F726967687400004D6173736167654D2B
:100A40006F646500576F726B4D6F64650000000046
:100A50000038014024000020004400406B000020CA
:100A60006D0000206E000020841100206C0000202A
:100A7000507300081500002014000020130000200F
:100A8000120000209A9999999999B93FFFFF0300A4
:100A90008C080020BC0000202481214200007F43FC
:100AA00010000020080000200C000020040000209E
:100AB000000000205C100020200000200846006894
:100AC0001E2820D10020039003AA1E21D84800F040
:100AD00037FC81460398012804D11E21D44800F038
:100AE00053FC81464B461E22D149D24800F0A6FC59
:100AF0004B461E22CE49CF4800F0F7FC4946CD4870
:100B000000F0C8FB00BF07B0BDE8F08F8CB04FF01D
:100B1000020B4FF00009CA4600200890C54800F0BB
:100B2000B5FB03F0BDFE03F051FEFFF7E9FAFFF756
:100B300034FB02F0A1FF02F087FE03E04FF47A706D
:100B400003F081FE00F081FB0028F7D103F059FA91
:100B5000B9A005F003FD40F6B83000F0B4FAB8A033
:100B600005F0FCFC40F6B83000F0ADFABE4805F0E8
:100B7000F5FC40F6B83000F0A6FABC4805F0EEFCF3
:100B800040F6B83000F09FFAB94805F0E7FC40F6AF
:100B9000B83000F098FAB74D00264FF4FA70B64915
:100BA0000860002435E000BFB44800680128FBD08D
:100BB00009A9072003F0DBF99DF824008007800BCA
:100BC0009DF8251040EA01209DF826100843AC4905
:100BD00041F824009DF827008007800B9DF828101D
:100BE00040EA01209DF829100843A64941F8240055
:100BF000A34850F82400A84202D2A14850F824503B
:100C00009F4850F82400B04202D99D4850F8246013
:100C1000641C994800688442C5DB994850F82470E8
:100C200099489A499A4A9B4BCDE900210290944AEF
:100C300091480168934803F049FBF7E09648006843
:100C40001E2802DAFFF71EFEF0E00024894D002680
:100C5000642420E08A4850F82410A4F16400884AF3
:100C600042F82010874850F82410A4F16400854A07
:100C700042F82010824850F82400A84202D280484E
:100C800050F824507E4850F82400B04202D97C48E5
:100C900050F82460641CB4F5FA7FDBDB4FF4C874B1
:100CA00082E0601E764951F8207000BF73480068EA
:100CB0000128FBD009A9072003F059F99DF8240069
:100CC0008007800B9DF8251040EA01209DF8261032
:100CD00008436B4941F824009DF827008007800BEA
:100CE0009DF8281040EA01209DF829100843654925
:100CF00041F82400624850F82400B8421FD96049E6
:100D000051F82410C81B04F08AFF0B90701B04F0EC
:100D100086FF014607900B9804F02AFE0B905F496E
:100D20000B9804F0F3FD0B900B9804F09BFFA8EBDD
:100D30000008B8F1000F20DA4FF000081DE050491C
:100D400051F82410781A04F06AFF0B90701B04F01D
:100D500066FF014607900B9804F00AFE0B904F497E
:100D60000B9804F0D3FD0B900B9804F07BFF8044AC
:100D7000B8F1FF0F01DD4FF0FF084348007801286C
:100D800011D14348007801280DD1404800688228DD
:100D900009DA40480068662805DA3C4890F800A067
:100DA0003C4800780890641CB4F5FA7FFFF679AFF0
:100DB00035483649364A374BCDE900210290304A52
:100DC0002D4801682F4803F081FA1A4800F07BFA99
:100DD0005146184800F05EFA164800F097FA00F005
:100DE000FF0A2F492F48FFF70EFD2D48006804F039
:100DF00071FFCDE906012B48006804F06BFFCDE9D7
:100E000004010898CDE902A0DDE90601CDE9000161
:100E10002548DDE9042305F0A1FBD94501DB4FF0AE
:100E2000000909F10209022003F00DFD06E70000A8
:100E30005C1000204C11002041540D0A00000000FD
:100E400041542B434950534E54504346473D312C57
:100E5000382C226E7470312E616C6979756E2E6338
:100E60006F6D220D0A0000002C710008A8710008A7
:100E700008730008FFFF03000000002024812142C6
:100E80008C080020BC000020100000200C00002076
:100E900008000020040000202000002000007F4304
:100EA0001C0000201800002014720008704700BFCA
:100EB000FEE700BFFEE700BFFEE700BFFEE77047AA
:100EC00070477047704700000CB5002001900090FB
:100ED0006C48006840F480306A49086000BF694887
:100EE000006800F4003000900198401C01900098C8
:100EF00018B90198B0F5A06FF1D16248006800F40C
:100F0000003010B10120009001E000200090009816
:100F1000012843D15C48006840F010005A4908603D
:100F20000846006820F0030008600846006840F0AA
:100F300002000860534840685249486008464068CB
:100F400048600846406840F4806048600846406851
:100F500020F47C1048600846406840F4E81048607F
:100F60000846006840F08070086000BF454800688F
:100F700000F000700028F9D04248406820F00300DB
:100F8000404948600846406840F00200486000BFA1
:100F90003C48406800F00C000828F9D10CBD10B5A1
:100FA000FFF792FF10BD10B53648006840F0010011
:100FB000344908600846406834490840314948606F
:100FC00008460068324908402E4908600846006813
:100FD00020F4802008600846406820F4FE00486045
:100FE0004FF41F008860FFF7DAFF4FF000602949D7
:100FF000086010BD10B5002100200022214B5B6865
:1010000003F00C0121B1042906D0082928D107E0FA
:10101000214B224C236027E01F4B204C236023E010
:10102000184B5B6803F47010164B5B6803F4803256
:10103000022303EB904022B9194B4343174C236022
:101040000DE0104B5B6803F4003323B1144B4343B2
:10105000124C236003E0104B4343104C236003E029
:101060000D4B0E4C236000BF00BF064B5B68C3F303
:1010700003130C4CE15C094B1B68CB40074C23600D
:1010800010BD000000100240002002400000FFF8E8
:10109000FFFFF6FE08ED00E000127A007400002069
:1010A00000093D0078000020002106E00A2100BF71
:1010B0000A00A1F1010399B2FAD10200A0F10103E3
:1010C00098B2F3D17047002107E042F6E06100BF1B
:1010D0000A00A1F1010399B2FAD10200A0F10103C3
:1010E00098B2F2D1704700B56548006820F00F0053
:1010F000634908600846006840F00300086000206B
:10110000604908601420FFF7DEFF01205E49C1F846
:1011100080011E20FFF7C8FF00BD10B5002458480D
:10112000006820F00F00564908600846006840F04B
:101130000800086004E0601CC4B20120FFF7B4FF9F
:1011400050488038006808B1642CF4DB642C01DB63
:10115000012010BD002404E0601CC4B20120FFF790
:10116000A3FF48488038006808B9642CF4DB0020ED
:10117000EFE710B5002404E0601CC4B20120FFF7C3
:1011800093FF40488038006808B1642CF4DB0024E9
:1011900004E0601CC4B20120FFF786FF39488038A4
:1011A000006808B9642CF4DB2820FFF77DFF354880
:1011B0008038006808B1012010BD0020FCE730B580
:1011C0000024002506E06006040EFFF7D2FF04436A
:1011D000681CC5B2082DF6DB204630BD2DE9FC4168
:1011E00005460E4617469846FFF77DFFFFF795FF29
:1011F00030BB002405E0FFF7E2FF0DF80400601C9F
:10120000C4B2052CF7DB9DF800009DF801100844DE
:101210009DF8021008449DF8031008449DF804103E
:10122000884210D19DF8000030709DF8010088F8C8
:1012300000009DF8020028709DF80300387002E05D
:101240000120BDE8FC810020FBE708B50121042056
:1012500003F05AFE0120ADF8000010208DF80300C5
:1012600003208DF802006946054803F091FB012137
:10127000034803F03AFCFFF736FFFFF74EFF08BDC7
:101280000008014080012142000021420021416309
:101290000163704710B5426B521C0C2392FBF3F4B0
:1012A00003FB1422036B9A4200D110BD426B40F83D
:1012B0002210426B521C0C2392FBF3F403FB14220A
:1012C000426300BFF1E710B501460022D1E90C03EB
:1012D000984201D1501E10BD086B51F82020086BB8
:1012E000401C0C2390FBF3F403FB1400086310462E
:1012F000F1E710B5016B05E04A1C0C2392FBF3F4F7
:1013000003FB1421426B8A42F6D110BD70B5014631
:10131000002400220B6B09E051F823000444521C06
:10132000581C0C2590FBF5F605FB1603486B9842FC
:10133000F2D1002A02DD94FBF2F070BD0020FCE740
:101340002DE9F04103460C461546002600270021F2
:10135000002200BF12E00020002207E053F822C064
:1013600053F82180C44500D1401C521CA242F5DB39
:10137000B04202DD064653F82170491CA142EADB67
:101380002E603846BDE8F0812DE9F04780460C46D6
:1013900000270026B146B246A00005F031F9054607
:1013A00000BF04E058F8270045F827007F1CA7423B
:1013B000F8DB002718E0002611E055F82610701C15
:1013C00055F82000814209DD55F82690701C55F82B
:1013D000200045F82600701C45F82090761CE01B84
:1013E000401EB042E9DC7F1C601EB842E3DC2046B0
:1013F00004EBD0714910A4EB410199B904EBD0730F
:101400005B105B1E55F82330224604EBD27C4FEA7A
:101410006C0C55F82CC003EB0C0101EBD1734FEAB7
:10142000630A05E0204604EBD071491055F821A06D
:10143000284605F0B7F85046BDE8F0872DE9F04F93
:101440008BB083460F4691469846142106A804F0B7
:1014500050F8142101A804F04CF8002400250026BF
:10146000A24600BF31E057F8240040452CDD57F874
:101470002400A0EB080A002523E001A850F825006D
:1014800020B101A850F82500504519DD04260CE0D4
:10149000701E06A951F8200041F82600701E01A90F
:1014A00051F8200041F82600761EAE42F0DC57F8D5
:1014B000240006A941F8250001A840F825A002E073
:1014C0006D1C052DD9DB00BF641C4C45CBDB002413
:1014D00006E006A850F824105846FFF7DBFE641C0F
:1014E000052CF6DB0BB0BDE8F08F2DE9F04F8BB08B
:1014F00083460F4691469846142106A803F0F9FF4B
:10150000142101A803F0F5FF00240025A2460026BF
:1015100000BF31E057F8240040452CDA57F824008A
:10152000A8EB000A002523E001A850F8250020B10F
:1015300001A850F82500504519DD04260CE0701E66
:1015400006A951F8200041F82600701E01A951F8A3
:10155000200041F82600761EAE42F0DC57F8240049
:1015600006A941F8250001A840F825A002E06D1C5D
:10157000052DD9DB00BF641C4C45CBDB002406E005
:1015800006A850F824105846FFF784FE641C052C6A
:10159000F6DB0BB0BDE8F08FFA480068F9494968FE
:1015A00008447047014609B900207047087B10289D
:1015B00001D10120F9E70020F7E700B50246104607
:1015C000FFF7F0FF08B9002000BD1069FCE70146F5
:1015D00009B900207047087B082801D10120F9E7EC
:1015E0000020F7E700B502461046FFF7F0FF10B9FC
:1015F0000020E54900BDD2E90601FBE708B511204E
:1016000007230122E1A10090E34804F0B7FFE2487C
:1016100008BD70B504460D4604B10DB9012070BD7A
:10162000AC4201D10020FAE705E0207808B900209B
:10163000F5E7641C6D1C207803F03CFF0646287813
:1016400003F038FF8642F0D0207803F033FF0646DF
:10165000287803F02FFF301AE1E72DE9F041044626
:101660000D460026002714B90020BDE8F081204671
:1016700003F066FF461C30462968884707460FB9C5
:101680000020F2E732462146384603F019FF38467B
:10169000EBE738B9C149C24A1160C2495160C24939
:1016A00091607047BD49BE4A1160016809B1016887
:1016B0001160BC49BA4A5160416809B14168516042
:1016C0000021B74A916011460968B44A914207D196
:1016D000B3494968B34A914202D1B349B04A9160D3
:1016E00000BFDEE770B5044628202168884705461C
:1016F0001DB12821284603F0FCFE284670BD70B5B8
:101700000446002522E02568A08900F4807020B9F5
:10171000A06810B1A068FFF7F2FFA08900F4807004
:1017200028B9206918B19E4A206951688847A08964
:1017300000F4007028B9206A18B1994A206A5168EB
:10174000884797484168204688472C46002CDAD1C4
:1017500070BD2E2070472DE9F04391B080460C46B5
:1017600000BF00201090FFF7F4FF814600250CB168
:10177000206818B9002011B0BDE8F08300253CE0D6
:10178000A16820680844405D342820D00ADCA0F11C
:101790002B0009282ED2DFE800F0202D212A2D165B
:1017A00017181900382816D006DC352810D036282E
:1017B0000FD037281ED10DE039280DD045280FD085
:1017C000652817D10BE000BF00BF00BF00BF00BFFE
:1017D00000BF00BF00BF00BF00BF00BF00BF00BF11
:1017E000A16820680844405D0DF8050003E00DF88D
:1017F000059000E00AE000BF6D1C3F2D05D224B12A
:10180000A068284461688842BAD300BF00200DF860
:10181000050010A9684605F0DFFB06460F4668463E
:101820001099884201D10020A5E7C8E906675F4A00
:101830005F4B3046394604F079FA04D86FF0004027
:10184000C8F8140011E000225A4B3046394604F023
:1018500055FA04D84FF00040C8F8140005E03046AF
:10186000394604F018FAC8F814000820C8F80C002B
:10187000A0686A461099891A0844A06001207AE796
:1018800070B5064614461D46484A494B204629462F
:1018900004F04CFA03D86FF0004070610FE00022B2
:1018A000444B2046294604F029FA03D84FF0004063
:1018B000706104E02046294604F0EDF9706120468D
:1018C0002946C6E9064570BD10B50446344841684E
:1018D0002046884710BD2DE9F04104460E460025FC
:1018E0003CB1207B00F0100018B1A08900F480709A
:1018F00010B10020BDE8F081206908B90020F9E7A7
:10190000304603F01DFE0746206903F019FE8742AA
:1019100005D83146206903F028FE2069EAE720490E
:101920003046FFF79AFE05460DB90020E2E7206930
:1019300010B12069FFF7C8FF25612846DAE72DE9D5
:10194000F04104460D46002600270CB1206810B96E
:101950000020BDE8F081606828B1D4E90110884218
:1019600001D30020F5E7B5F1004F01D30020F0E7E7
:10197000A068401C05446068A8421DD3A168206887
:101980000844E6E7880000200000F87F25692E253E
:10199000692E256900000000541900200166000826
:1019A00090000020A56500086D6F00080000C0FFD2
:1019B000FFFFDF410000E0C1206908B10020C8E757
:1019C000B5F1804F07D3B5F1004F02D26FF0004759
:1019D00002E00020BDE76F00206A60B13946226A4C
:1019E000206890470646DEB9E169206888470020F4
:1019F00060602060ADE73846A1698847064636B981
:101A0000E16920688847002060602060A1E7A06845
:101A1000421C3046216803F053FDE1692068884785
:101A200067602660A068304493E770B504460025DF
:101A30000CB1206800B970BDA1682068451828461F
:101A400003F07EFDA1680844A06000BFF3E72DE924
:101A5000FC5F04460D4616461F4627F00043B2467B
:101A600025F000405246CDE900402046019904F09F
:101A70005DF903D225F00041204602E027F0004145
:101A80003046804689460022F84B4046494604F0DD
:101A900054F882468B4632463B462046294604F09F
:101AA00046F821F0004152465B46CDE9000104F0C2
:101AB00025F902D80120BDE8FC9F0020FBE72DE9B5
:101AC000F04F8BB081460F464FF0000AD9E906452A
:101AD000D04600261C2104A803F00BFDFFF739FEB9
:101AE000834600200290039017B90BB0BDE8F08F39
:101AF000CDE90045DDE900210AB1012200E0002224
:101B000041EA020020F00041D94A511AC90F61B9D7
:101B1000CDE9004551000198B1EB400F03D1009889
:101B200008B9012000E0002028B1D2A104A804F0E7
:101B300025FD80462EE0D9F8140004F075F8224601
:101B40002B46CDE9000104F0D9F807D1CBA104A8B8
:101B5000D9F8142004F012FD80461BE022462B46E3
:101B6000C7A104A804F00AFD804602AAC6A104A8E1
:101B700003F014FD012806D122462B46DDE90201BF
:101B8000FFF765FF30B922462B46C0A104A804F038
:101B9000F5FC8046B8F1000F02DBB8F1190F01DD4A
:101BA0000020A2E708F101013846FFF7C8FE82468F
:101BB000BAF1000F01D1002097E700260DE004A83C
:101BC000805D584503D12E200AF8060004E004A8E1
:101BD000805D0AF8060000BF761C4645EFD3002062
:101BE0000AF80600B8684044B86001207DE7024664
:101BF0000023002100BF23E0505C302806DB505C4E
:101C0000392803DC505C3038034415E0505C41282F
:101C100006DB505C462803DC505C373803440BE09D
:101C2000505C612806DB505C662803DC505C57384A
:101C3000034401E000207047032900D21B01491C26
:101C40000429D9D31846F6E72DE9FF5F8046894677
:101C5000154600240026C2460020039083460290C9
:101C60000190A9EB0A00062800DA81E00AF10200DF
:101C7000FFF7BDFF0646B6F55C4F03D3B6F5604FE0
:101C800000D275E0B6F5584F29D3B6F55C4F26D291
:101C90000AF10607002000900C200290A9EB070033
:101CA000062800DA64E038785C2802D17878752854
:101CB00000D05DE0B81CFFF79AFF00900098B0F5E7
:101CC0005C4F03D30098B0F5604F00D350E0C6F3EB
:101CD0000901009861F39F2000F5803402E006209E
:101CE00002903446802C02D20120039018E0B4F513
:101CF000006F04D202200390C020019010E0B4F5E0
:101D0000803F04D203200390E020019008E0B4F566
:101D1000881F04D204200390F020019000E027E007
:101D20000398401E00F0FF0B0BE004F0BF0040F0F2
:101D30008000296801F80B00A409ABF1010000F054
:101D4000FF0BBBF1000FF0DC0398012804DD0198C4
:101D500020432968087003E004F07F0029680870B8
:101D60002968039808442860029804B0BDE8F09FF1
:101D70000020FAE72DE9F84F80460C46A16820685C
:101D80000844461CA16820680844451C00200090B7
:101D90000027A1682068405C222800D0BAE04FF0FC
:101DA000000AD1460DE028785C2809D1681C21681A
:101DB000401A6168884200D3ACE009F101096D1C4A
:101DC0006D1C2068281A6168884202D2287822286F
:101DD000E9D12068281A6168884202D2287822282E
:101DE00000D097E0A16820680844281AA0EB090AEF
:101DF0000AF1010021698847074607B98AE0009780
:101E000075E030785C2807D016F8010B009908704F
:101E10000098401C00906AE04FF00209A81B0128BE
:101E200000DA77E07078662819D008DC222846D0DE
:101E30002F2846D05C2843D0622854D108E06E2871
:101E400028D072282DD0742832D075284BD13FE08D
:101E50000820009908700098401C009044E00C2075
:101E6000009908700098401C00903DE00000B03CD4
:101E70000000F07F6E756C6C0000000025640000AF
:101E800025312E3135670000256C670025312E3154
:101E9000376700000A20009908700098401C0090E5
:101EA00022E00D20009908700098401C00901BE073
:101EB0000920009908700098401C009014E000BFB1
:101EC00000BF7078009908700098401C00900BE0EB
:101ED0006A4629463046FFF7B7FE8146B9F1000F42
:101EE00000D117E000E015E000BF4E4400BFAE4255
:101EF00087D30020009908701020C8F80C00C8F89B
:101F000010702068281AA060A068401CA060012002
:101F1000BDE8F88F17B138466169884716B1206867
:101F2000301AA0600020F3E72DE9F04707468A4603
:101F3000002400260025A046A146BAF1000F02D1D8
:101F40000020BDE8F0876FB903215046FFF7F7FC8A
:101F500006460EB90020F4E7FCA1304603F005FB6D
:101F60000120EEE73C4622E020780C2811D006DC68
:101F700008280DD009280FD00A2810D10AE00D2812
:101F800009D0222802D05C2809D100E000BF00BFA0
:101F900000BF00BF00BF00BF09F1010905E02078C4
:101FA000202801DA09F1050900BF00BF641C207870
:101FB0000028D9D1E01B00EB090808F103015046C5
:101FC000FFF7BDFC06460EB90020BAE7B9F1000FD5
:101FD0000FD12220307042463946701C03F070FA4F
:101FE000222108F1010031540021401C315401200C
:101FF000A7E722203070751C3C463DE020781F2862
:1020000008DD2078222805D020785C2802D02078AE
:1020100028702FE05C2005F8010B20780C2815D0E3
:1020200006DC08280FD0092819D00A281AD110E098
:102030000D2811D0222803D05C2813D1287018E075
:102040002220287015E06220287012E06620287097
:102050000FE06E2028700CE07220287009E07420D8
:10206000287006E02278BAA1284604F087FA2D1DD0
:1020700000BF00BF641C6D1C20780028BED1222147
:1020800008F1010031540021401C3154012058E76F
:1020900070B504460D4629462069FFF745FF70BD1F
:1020A000014609B1086808B90020704719B1D1E9A3
:1020B0000120904201D30846F7E702E08868401CFF
:1020C000886041B1D1E90120904204D28A68086851
:1020D000805C2028F2DDD1E90120904202D188689D
:1020E000401E88600846E0E710B504461CB1206831
:1020F00008B1A06808B1002010BD7CB1A068001D27
:10210000616888420AD2A26821688818032292A1D5
:1021100003F034FA10B9A068C01CA0602046EBE7B9
:102120002DE9F04180460C4600260025E068B0F518
:102130007A7F02D30020BDE8F081E068401CE060B7
:1021400044B1D4E90110884204D2A1682068405CFF
:102150007B2800D07DE0A068401CA0602046FFF7EF
:102160009FFF4CB1D4E90110884205D2A1682068D4
:10217000405C7D2800D15DE01CB1D4E901108842AB
:1021800003D3A068401EA06063E0A068401EA0606A
:1021900000BF04F11000FFF7A5FA074607B958E0A1
:1021A00016B93E463D4602E02F607D603D46A06880
:1021B000401CA0602046FFF773FF21462846FFF72A
:1021C000D9FD00B945E02046FFF76AFF286928627B
:1021D0000020286144B1D4E90110884204D2A168EA
:1021E0002068405C3A2800D033E0A068401CA06022
:1021F0002046FFF755FF2146284600F0B5F800B904
:1022000027E02046FFF74CFF44B1D4E90110884293
:1022100004D2A1682068405C2C28BAD044B1D4E92B
:102220000110884204D2A1682068405C7D2800D05B
:102230000FE000BFE068401EE06006B1756040201E
:10224000C8F80C00C8F80860A068401CA060012015
:1022500071E716B13046FFF752FA00206BE72DE91F
:10226000F04180460C4600250027E068B0F57A7FF3
:1022700002D30020BDE8F081E068401CE060A16866
:102280002068405C5B2800D068E0A068401CA0602B
:102290002046FFF705FF4CB1D4E90110884205D272
:1022A000A1682068405C5D2800D13FE01CB1D4E902
:1022B0000110884203D3A068401EA0604EE0A068D1
:1022C000401EA06000BF04F11000FFF70BFA0646A5
:1022D00006B943E015B93546374602E03E607760FF
:1022E0003746A068401CA0602046FFF7D9FE214673
:1022F000384600F039F800B930E02046FFF7D0FE4C
:1023000044B1D4E90110884204D2A1682068405C3D
:102310002C28D8D044B1D4E90110884204D2A16855
:102320002068405C5D2800D018E000BFE068401ED7
:10233000E06005B16F602020C8F80C00C8F80850B4
:10234000A068401CA060012094E700002222000049
:102350007525303478000000EFBBBF0015B128466A
:10236000FFF7CDF9002085E770B505460C460CB1A6
:10237000206808B9002070BDA4B1A068001D616884
:1023800088420FD8A268216888180422AFF21C5135
:1023900003F0F4F830B90420E860A068001DA060E4
:1023A0000120E8E79CB1A068401D616888420ED812
:1023B000A268216888180522FEA103F0DFF830B971
:1023C0000120E860A068401DA0600120D3E7ACB107
:1023D000A068001D6168884210D8A268216888182A
:1023E0000422F6A103F0CAF840B90220E8600120F7
:1023F0006861A068001DA0600120BCE76CB1D4E951
:102400000110884209D2A1682068405C222804D1CA
:1024100021462846FFF7AEFCADE7BCB1D4E9011078
:10242000884213D2A1682068405C2D2809D0A16899
:102430002068405C302809DBA1682068405C3928AE
:1024400004DC21462846FFF786F994E76CB1D4E90D
:102450000110884209D2A1682068405C5B2804D141
:1024600021462846FFF7FBFE85E76CB1D4E9011051
:10247000884209D2A1682068405C7B2804D12146AB
:102480002846FFF74DFE76E7002074E72DE9F04778
:102490008AB004460E46154698461C2103A803F050
:1024A00028F800270020C7490860486004B106B931
:1024B00032E00394049600200590C34A07CA07AB94
:1024C00007C3C148FFF70EF9074607B924E003A880
:1024D000FFF70AFE8246FFF7E3FD8146494638468C
:1024E000FFF742FF00B917E0B8F1000F0BD003A8C7
:1024F000FFF7D6FDDDE90410884203D20599039861
:10250000405C00B108E01DB10599039808442860BB
:1025100038460AB0BDE8F08717B13846FFF7EFF844
:10252000C4B1019400200290DDE90410884202D277
:102530000598029004E0049810B10498401E02909F
:102540001DB1DDE90101084428609E48DDE9011262
:1025500006C000BF0020DCE72DE9F04104460D462F
:10256000164614B90020BDE8F081204602F0E8FFCD
:10257000471C33462A4639462046FFF787FFF2E7D5
:1025800010B50446002211462046FFF7E5FF10BDB6
:1025900070B504460D4600231A4629462046FFF72B
:1025A00075FF70BD2DE9F04781460C4600250026D9
:1025B000D9F8087014B90020BDE8F087606908B147
:1025C000022000E001200646711C2046FFF7B7F903
:1025D00005460DB90020EFE77B2005F8010BE06808
:1025E000401CE060606910B10A2005F8010BA0688A
:1025F0003044A06069E06069B8B12046E168FFF747
:102600009EF905460DB90020D6E74FF0000804E01A
:10261000092005F8010B08F10108E0684045F7D8EA
:10262000D4E902010844A06000BF2146386AFFF7E0
:102630007BFC08B90020BFE72046FFF7F6F9606988
:1026400008B1022000E00120064631462046FFF78F
:1026500076F905460DB90020AEE73A2005F8010BE2
:10266000606910B1092005F8010BA0683044A06032
:102670002146384600F0B6F808B900209CE720460D
:10268000FFF7D3F9606908B1012000E00020396844
:1026900009B1012100E000214618711C2046FFF716
:1026A0004EF905460DB9002086E7386810B12C2098
:1026B00005F8010B606910B10A2005F8010B002034
:1026C0002870A0683044A0603F68002F93D16069F3
:1026D00010B1E068401C00E0022001462046FFF7F0
:1026E0002EF905460DB9002066E7606950B100205B
:1026F00003E0092105F8011B401CE168491E8142E5
:10270000F7D800BF7D2005F8010B00202870E06895
:10271000401EE06001204FE72DE9F04107460C46DE
:102720000025A846BE6814B90020BDE8F08101214B
:102730002046FFF704F905460DB90020F5E75B20B8
:102740002870A068401CA060E068401CE06028E0A1
:102750002146304600F046F808B90020E5E720465B
:10276000FFF763F93068D8B1606908B1022000E072
:102770000120804608F101012046FFF7E0F80546F8
:102780000DB90020D1E72C2005F8010B606910B1CC
:10279000202005F8010B00202870A0684044A060AC
:1027A0003668002ED4D102212046FFF7C8F805462E
:1027B00075B90BE066616C73650000007472756535
:1027C0000000000088000020900000200020ACE7FE
:1027D0005D2005F8010B00202870E068401EE060D5
:1027E0000120A2E72DE9F04104460E46002504B180
:1027F00016B90020BDE8F081207B10285AD008DCF3
:1028000001281CD0022829D0042809D0082860D12A
:1028100033E0202853D0402856D0802859D131E0C9
:1028200005213046FFF78BF805460DB90020E1E79A
:10283000AFF6C011284602F098FE0120DAE7062123
:102840003046FFF77CF805460DB90020D2E7AFF21D
:102850009C01284602F089FE0120CBE70521304685
:10286000FFF76DF805460DB90020C3E7AFF2B401DC
:10287000284602F07AFE0120BCE731462046FFF7E9
:102880001EF9B7E70027206908B90020B2E72069E0
:1028900002F056FE471C39463046FFF750F8054611
:1028A0000DB90020A6E73A462846216902F008FE45
:1028B00001209FE731462046FFF7EAFB9AE73146C1
:1028C0002046FFF729FF95E731462046FFF76AFECD
:1028D00090E700208EE7F0B589B007460E46144613
:1028E00000252421684602F004FE4FF48070216820
:1028F000884700904FF480700190059694E8070097
:1029000006AB07C3009800B933E069463846FFF7C5
:1029100069FF00B92DE06846FFF787F8A06850B15D
:10292000029B591C0098A2689047054605B920E013
:10293000002000901AE0029A501C21688847054642
:1029400005B916E0DDE90130401C834201D201984F
:1029500001E00298401C02462846009902F0B0FDB2
:10296000002002996854009861688847284609B099
:10297000F0BD009810B100986168884715B12846ED
:10298000616888470020F2E710B50446FB4A012140
:102990002046FFF7A0FF10BD10B50446F74A0021FE
:1029A0002046FFF798FF10BD70B58AB006460C466A
:1029B0001546242101A802F09CFD002C02DA00201B
:1029C0000AB070BDED480168204688470190019823
:1029D00008B90020F4E702940020039005900695C2
:1029E000E64A07CA07AB07C301A93046FFF7FAFE5C
:1029F00028B9E24A0198516888470020E0E7019829
:102A0000DEE7F0B589B007460C4615461E46242180
:102A1000684602F06EFD002D00DB14B9002009B0FD
:102A2000F0BD0094019500200290012004900596CD
:102A3000D24A07CA06AB07C369463846FFF7D2FE3B
:102A4000EDE701460022002309B9002070478A689B
:102A500001E05B1C1268002AFBD11846F6E702462B
:102A60000B4600210AB900207047916801E05B1E07
:102A7000096809B1002BFAD10846F5E770B505469B
:102A80000C46002C01DA002070BD21462846FFF7D5
:102A9000E6FFF9E72DE9F04105460E46174600240A
:102AA00005B116B90020BDE8F081AC685FB100E067
:102AB00024688CB1206A78B13046216A02F047FD63
:102AC0000028F5D108E000E024682CB13046216AE6
:102AD000FEF79FFD0028F7D10CB1206A08B900204D
:102AE000E1E72046DFE770B504460D46002229469F
:102AF0002046FFF7CFFF70BD70B504460D4601229A
:102B000029462046FFF7C6FF70BD70B504460D4646
:102B100029462046FFF7E7FF08B1012070BD0020DD
:102B2000FCE701604860704770B505460E4600241A
:102B30000DB9002070BD3046FEF7D4FD04460CB937
:102B40000020F7E728222946204602F0B9FC0020A1
:102B50002062E06840F48070E060002060602060E7
:102B60002046E7E770B505460C46002614B10DB1C6
:102B7000A54201D1002070BDAE6826B9AC6064608A
:102B80000020206007E0706828B121467068FFF7D8
:102B9000C8FFA86844600120EDE770B504460D4603
:102BA00029462046FFF7DEFF70BD70472DE9F0474C
:102BB00005460E4614461F46DDF820904FF00008EB
:102BC000C2461DB116B10CB1A54202D10020BDE82C
:102BD000F087B9F1000F07D03046FFF7E6FF8046D7
:102BE000E06840F4007A0CE039463046FEF735FDE7
:102BF0008046B8F1000F01D10020E8E7E06820F43A
:102C0000007AA08900F4007020B9206A10B1206A0F
:102C100079688847C4F82080C4F80CA0214628466B
:102C2000FFF7A0FFD3E7F8B504460D46164600208F
:102C3000524B3246294600902046FFF7B7FFF8BDB9
:102C4000F8B504460D46164601204C4B324629463F
:102C500000902046FFF7AAFFF8BD70B504460D4668
:102C60000CB9002070BD45492846FFF75DFF0646B8
:102C700031462046FFF776FFF4E7F8B504460D46E7
:102C8000164604B10DB90020F8BD3C493046FFF7A7
:102C90004BFF07460020394B3A4629460090204614
:102CA000FFF784FFF0E710B53448FEF71BFD04463C
:102CB0000CB10420E060204610BDF8B504460D4676
:102CC000FFF7F1FF064600202C4B324629460090C4
:102CD0002046FFF76BFF08B13046F8BD3046FEF7DF
:102CE0000EFD0020F9E710B52448FEF7FBFC044672
:102CF0000CB10220E060204610BDF8B504460D4638
:102D0000FFF7F1FF064600201C4B32462946009093
:102D10002046FFF74BFF08B13046F8BD3046FEF7BE
:102D2000EEFC0020F9E710B51448FEF7DBFC044682
:102D30000CB10120E060204610BDF8B504460D46F8
:102D4000FFF7F1FF064600200C4B32462946009063
:102D50002046FFF72BFF08B13046F8BD3046FEF79E
:102D6000CEFC0020F9E770B505460448FEF7BAFC32
:102D700004463CB125B1022003E000009000002091
:102D80000120E060204670BDF8B505460E461446A9
:102D90002046FFF7E8FF07460020FE4B3A46314643
:102DA00000902846FFF702FF08B13846F8BD3846C4
:102DB000FEF7A5FC0020F9E770B505460E46F5487C
:102DC000FEF790FC0446F4B10820E060C4E9065622
:102DD000F14AF24B2846314602F0A8FF03D86FF0C3
:102DE000004060610FE00022ED4B2846314602F0C2
:102DF00085FF03D84FF00040606104E0284631466B
:102E000002F049FF6061204670BD2DE9F843064697
:102E10000F4614461D4620462946FFF7CDFF804643
:102E20000020DC4B4246394600903046FFF7BEFE9C
:102E300010B14046BDE8F8834046FEF760FC002034
:102E4000F8E770B50546D348FEF74CFC04466CB174
:102E50001020E060CF492846FEF7FFFB2061206983
:102E600020B92046FEF74BFC002070BD2046FCE751
:102E7000F8B505460E4614462046FFF7E2FF074622
:102E80000020C44B3A46314600902846FFF78EFE9C
:102E900008B13846F8BD3846FEF731FC0020F9E7A6
:102EA00070B50546BB48FEF71DFC04466CB180209A
:102EB000E060B8492846FEF7D0FB2061206920B9C0
:102EC0002046FEF71CFC002070BD2046FCE7F8B54C
:102ED00005460E4614462046FFF7E2FF074600204F
:102EE000AC4B3A46314600902846FFF75FFE08B1EA
:102EF0003846F8BD3846FEF702FC0020F9E710B569
:102F0000A448FEF7EFFB04460CB14020E0602046E9
:102F100010BDF8B504460D46FFF7F1FF0646002048
:102F20009C4B3246294600902046FFF73FFE08B1F1
:102F30003046F8BD3046FEF7E2FB0020F9E710B559
:102F40009448FEF7CFFB04460CB12020E0602046F9
:102F500010BDF8B504460D46FFF7F1FF0646002008
:102F60008C4B3246294600902046FFF71FFE08B1E1
:102F70003046F8BD3046FEF7C2FB0020F9E70246B6
:102F800002B109B9002070479068884202D0D1E9A7
:102F900000031860086810B1D1E9003058609068EB
:102FA000884202D10868906004E0086810B9486857
:102FB000936858600020486008600846E3E770B5F1
:102FC00005460C46002C01DA002070BD214628463B
:102FD000FFF745FD064631462846FFF7D0FFF4E7E8
:102FE00070B504460D4629462046FFF7E8FF064621
:102FF000FEF785FB70BD70B504460D462946204698
:10300000FFF771FD064631462046FFF7B8FF70BD59
:1030100070B504460D4629462046FFF76DFD06466D
:1030200031462046FFF7ABFF70BD70B504460D4634
:1030300029462046FFF7DFFF0646FEF760FB70BD1E
:1030400070B504460D4629462046FFF7E1FF0646C7
:10305000FEF755FB70BD2DE9F04106460F461446BC
:103060000025002F00DB14B90020BDE8F0813946AF
:103070003046FFF7F4FC054625B921463046FFF7F8
:1030800071FDF2E7B068A84203D0686808B9002073
:10309000EBE72560686860606C60B068A84201D1A9
:1030A000B46001E0606804600120DEE770B50646A8
:1030B0000D4614461EB1B06808B104B10DB9002028
:1030C00070BDAC4201D10120FAE728682060686831
:1030D0006060206808B120684460B068A84207D1E9
:1030E000B0684068B168884200D16460B46007E0AD
:1030F000606808B160680460206808B9B06844601E
:103100000020286068602846FEF7F9FA0120D7E71A
:103110002DE9F04105460C461646002C02DA002047
:10312000BDE8F08121462846FFF799FC0746324664
:1031300039462846FFF7BAFFF2E72DE9F041074686
:103140000D4614461E4604B115B90020BDE8F081B5
:10315000A08900F4007020B9206A10B1206AFEF73F
:10316000B3FB0C492846FEF778FA2062206A08B9BA
:103170000020EBE7E06820F40070E060324629466A
:103180003846FFF787FC8046224641463846FFF71F
:103190008DFFDBE7900000200000C0FFFFFFDF4154
:1031A0000000E0C170B504460D46164600233246C5
:1031B00029462046FFF7C1FF70BD70B504460D4695
:1031C00016460123324629462046FFF7B6FF70BD5A
:1031D00070B50546F848FEF785FA044634B14FF459
:1031E0008870E0602846FFF7E0FC2061204670BD53
:1031F00070B50546F048FEF775FA044634B14FF451
:10320000A070E0602846FFF7D0FCA060204670BDAB
:1032100070B50546E848FEF765FA044634B14FF448
:103220009070E0602846FFF7C0FCA060204670BDAB
:103230002DE9F05F81468A4600260025AB46002432
:10324000BAF1000F02DBB9F1000F02D10020BDE896
:10325000F09FFFF774FE0446002616E059F826009A
:1032600002F0E2FC0746FFF7A7FD054625B9204618
:10327000FEF745FA0020EAE70EB9A56003E029460B
:103280005846FFF74EFCAB46761C0CB15645E5D3CD
:103290001CB1A06808B1A06845602046D7E72DE9B9
:1032A000F05F81468A4600260025AB460024BAF12D
:1032B000000F02DBB9F1000F02D10020BDE8F09F42
:1032C000FFF73DFE0446002616E059F8260002F0FE
:1032D00001FD0746FFF770FD054625B92046FEF7BC
:1032E0000EFA0020EAE70EB9A56003E02946584629
:1032F000FFF717FCAB46761C0CB15645E5D31CB165
:10330000A06808B1A06845602046D7E72DE9F047DE
:103310000746884600260025A9460024B8F1000F7C
:1033200000DB17B90020BDE8F087FFF708FE044670
:10333000002616E007EBC600D0E900211046FFF793
:103340003BFD054625B92046FEF7D9F90020EAE7FE
:103350000EB9A56003E029464846FFF7E2FBA946FF
:10336000761C0CB14645E5D31CB1A06808B1A06835
:1033700045602046D7E72DE9F047074688460026F6
:103380000025A9460024B8F1000F00DB17B9002082
:10339000BDE8F087FFF7D3FD0446002613E057F899
:1033A0002600FFF74EFD054625B92046FEF7A7F992
:1033B0000020EDE70EB9A56003E029464846FFF777
:1033C000B0FBA946761C0CB14645E8D31CB1A068F9
:1033D00008B1A06845602046DAE72DE9F0470546C8
:1033E000894600240027A046002605B94DE0724812
:1033F000FEF778F9044604B947E0E86820F48070E5
:10340000E06068696061D5E90601C4E906012869E0
:1034100038B169492869FEF720F92061206900B9AF
:1034200033E0286A68B1A88900F4007008B1286AFE
:1034300003E06149286AFEF710F92062206A00B9AA
:1034400023E0B9F1000F02D12046BDE8F087AF6854
:1034500012E001213846FFF7C0FF064606B914E026
:10346000B8F1000F05D0C8F80060C6F80480B04677
:1034700001E0A660B0463F68002FEAD11CB1A06809
:1034800008B1A06846602046DFE714B12046FEF789
:1034900036F90020D9E70168891C01600AE001685B
:1034A00009780A2903D10168491C01607047016845
:1034B000491C0160016809780029F0D100BFF5E7D7
:1034C0000168891C01600EE0016809782A2907D18A
:1034D000016849782F2903D10168891C0160704770
:1034E0000168491C0160016809780029ECD100BF1E
:1034F000F5E7026812780B681A700268521C0260C5
:103500000A68521C0A6028E0026812780B681A7078
:1035100002681278222A08D10B681A700268521CBD
:1035200002600A68521C0A607047026812785C2ABE
:103530000DD102685278222A09D1026852780B68AC
:103540005A700268521C02600A68521C0A600268C3
:10355000521C02600A68521C0A6002681278002A33
:10356000D2D100BFE0E701B582B002980190029885
:1035700000B90EBD3FE00298007820280CD006DC90
:1035800009280AD00A280AD00D2828D106E02228C6
:1035900020D02F2823D106E000BF00BF00BF029833
:1035A000401C029026E0029840782F2806D102A8FD
:1035B000FFF771FF0DE000009000002002984078B6
:1035C0002A2803D102A8FFF77BFF02E00298401CE3
:1035D00002900FE001A902A8FFF78BFF0AE0029812
:1035E0000078019908700298401C02900198401CD4
:1035F000019000BF00BF029800780028BBD101995C
:10360000087000BFB5E7014609B900207047087B84
:1036100008B90120FAE70020F8E7014609B90020BF
:103620007047087B012800D1FAE70020F8E701463F
:1036300009B900207047087B022801D10120F9E771
:103640000020F7E7014609B900207047087B00F029
:10365000030008B10120F8E70020F6E7014609B9A8
:1036600000207047087B042801D10120F9E70020E1
:10367000F7E7014609B900207047087B202801D1EF
:103680000120F9E70020F7E7014609B9002070475B
:10369000087B402801D10120F9E70020F7E7014627
:1036A00009B900207047087B802801D10120F9E783
:1036B0000020F7E72DE9F0470446894692463CB1E1
:1036C000B9F1000F04D0207B99F80C10884202D089
:1036D0000020BDE8F087207B102814D008DC0128EA
:1036E0000DD002280CD004280BD008280FD109E0F7
:1036F00020280AD0402809D0802808D104E000BF43
:1037000000BF00BF00BF00BF00BF00BF01E000203E
:10371000DFE700BF4C4501D10120DAE7207B10280C
:1037200021D008DC01280DD002280CD004280BD0B1
:1037300008287DD10AE0202827D040283CD08028C6
:1037400076D111E000BF00BF0120C2E7D9E90653DE
:103750002A46D4E906713846FEF779F908B1012006
:10376000B7E70020B5E700BF206910B1D9F8100015
:1037700008B90020ADE7D9F81010206901F0E7FE84
:1037800008B90120A5E70020A3E7A568D9F80860DB
:1037900009E0524631462846FFF78CFF08B9002061
:1037A00097E72D6836680DB1002EF2D1B54201D0F1
:1037B00000208EE701208CE7002500260CB1A068D0
:1037C00000E00020054611E052464846296AFFF70E
:1037D00061F906460EB900207BE75246314628467D
:1037E000FFF768FF08B9002073E72D68002DEBD1C3
:1037F000B9F1000F02D0D9F8080000E00020064619
:1038000012E052462046316AFFF744F9054615B9E1
:1038100000205EE70CE0524629463046FFF74AFF9B
:1038200008B9002055E73668002EEAD1012050E79C
:1038300000204EE710B5044602480168204688473C
:1038400010BD00009000002008B50121082001F003
:103850005BFB4FF44060ADF8000010208DF80300D2
:1038600003208DF802006946804801F091F84FF47A
:1038700080617E4801F039F94FF400617B4801F026
:1038800034F908BD08B54FF40060ADF800004820D9
:103890008DF8030003208DF802006946734801F09B
:1038A00077F808BD08B54FF40060ADF800001020AF
:1038B0008DF8030003208DF8020069466B4801F083
:1038C00067F808BD10B5FFF7EDFF012068490860F3
:1038D0006849C1F8A801042000F091FF0020644964
:1038E0000860042000F08BFF00206249C1F8A801A5
:1038F00010BD10B5FFF7D6FF01205D49091F086014
:1039000000205C49C1F8AC01042000F078FF0120E0
:103910005749091F08605749C1F8AC01042000F05D
:103920006EFF10BD10B50024FFF7ACFF0120504919
:10393000086000F064FF01204E49C1F8A80100F0C2
:103940005EFF07E0601CC4B2FA2C03DDFFF7D1FF75
:10395000012010BD4648803800680028F2D1444953
:10396000091F086000BFF4E710B500204049091F97
:103970000860FFF797FF00203E49C1F8AC01022024
:1039800000F03DFF01203A49091F0860022000F0C5
:1039900036FF00203749C1F8A80110BD10B500203E
:1039A0003349091F0860FFF77DFF01203149C1F845
:1039B000AC01022000F023FF01202D49091F0860FF
:1039C000022000F01CFF00202A49C1F8A80110BD08
:1039D00070B50446FFF766FF00202549091F0860FF
:1039E000002517E0E009224908606006040E022065
:1039F00000F005FF01201F49C1F8A801022000F0D6
:103A0000FEFE00201A49091F0860022000F0F7FEA0
:103A1000681CC5B2082DE5DB70BD70B505460024F5
:103A2000FFF730FF002617E000201149091F08604A
:103A3000022000F0E4FE01200E49C1F8A801600652
:103A4000040E0B488038006808B1601CC4B2012025
:103A500000F0D5FE701CC6B2082EE5DB15B9FFF7E5
:103A60009DFF01E0FFF780FF204670BD000C014084
:103A7000AC8121420080214208B50121042001F0DF
:103A800043FA0220ADF8000010208DF80300032057
:103A90008DF802006946044800F07AFF02210248CE
:103AA00001F023F808BD00000008014008B501211D
:103AB000082001F029FA4FF4C070ADF80000102082
:103AC0008DF8030003208DF802006946D54800F008
:103AD0005FFF0120D4490860D449C1F8A00108BDA6
:103AE00010B5D048001D006820F00F00CD49091D19
:103AF00008600846006840F0070008600120CA49D5
:103B0000091D0860C949C1F89C01042000F077FE36
:103B10000020C549091D0860042000F070FE002047
:103B2000C249C1F89C0110BD10B5BE48001D006817
:103B300020F00F00BB49091D08600846006840F0EE
:103B4000070008600020B8490860B849C1F8A00122
:103B5000042000F054FE0120B3490860B349C1F8C5
:103B6000A001042000F04BFE10BD10B50024AD48AC
:103B7000001D006820F00F00AA49091D08600846D2
:103B8000006840F0040008600120A749091D086092
:103B900000F035FE0120A549C1F89C0100F02FFE80
:103BA00007E0601CC4B2FA2C03DDFFF7BDFF012063
:103BB00010BD9D487C3800680028F2D19A49086001
:103BC00000BFF5E710B50020974908609548001D33
:103BD000006820F00F009349091D0860084600683E
:103BE00040F00700086000209049C1F8A0010220C1
:103BF00000F005FE01208C490860022000F0FFFD66
:103C000000208A49C1F89C0110BD10B500208649EA
:103C100008608448001D006820F00F008149091DDC
:103C200008600846006840F00700086001207F49EE
:103C3000C1F8A001022000F0E2FD01207A490860ED
:103C4000022000F0DCFD00207849C1F89C0110BD85
:103C500070B504467348001D006820F00F007149DC
:103C6000091D08600846006840F007000860002051
:103C70006D490860002517E0E0096B49091D0860DF
:103C80006006040E022000F0BAFD01206749C1F869
:103C90009C01022000F0B3FD00206349086002206F
:103CA00000F0ADFD681CC5B2082DE5DB70BD70B538
:103CB000054600245B48001D006820F00F005949AC
:103CC000091D08600846006840F0040008600026EE
:103CD00016E0002054490860022000F090FD012009
:103CE0005249C1F89C016006040E4F487C380068B8
:103CF00008B1601CC4B2012000F081FD701CC6B286
:103D0000082EE6DB15B9FFF780FF01E0FFF75AFF49
:103D1000204670BD2DE9F04107460D461646FFF7D7
:103D2000DFFE3846FFF794FFFFF71FFF002406E091
:103D3000285DFFF78DFFFFF718FF601CC4B2B44287
:103D4000F6DBFFF7F1FE0A2000F07DFDBDE8F08113
:103D50002DE9F0410746884614461D46FFF7C0FE90
:103D60003846FFF775FFFFF700FF4046FFF770FF8B
:103D7000FFF7FBFE47F00100FFF76AFFFFF7F5FED4
:103D8000002605E00120FFF792FFA055701CC6B287
:103D9000681EB042F6DC0020FFF789FF691E605400
:103DA000FFF7C2FE0A2000F04EFDBDE8F08170B5BD
:103DB00004460D461646FFF793FE2046FFF748FFE0
:103DC000FFF7D3FE2846FFF743FFFFF7CEFEFFF7CE
:103DD00087FE44F00100FFF73BFFFFF7C6FE00201F
:103DE000FFF765FF3070FFF79FFE70BD70B50646A8
:103DF0000C461546FFF774FE3046FFF729FFFFF724
:103E0000B4FE2046FFF724FFFFF7AFFE2846FFF77A
:103E10001FFFFFF7AAFEFFF787FE0A2000F013FD41
:103E200070BD0000000C01409C81214200802142B5
:103E300070B505460C46FFF753FEAE20FFF708FFAE
:103E4000FFF793FE00B111E02846FFF701FFFFF7EF
:103E50008CFE00B10AE02046FFF7FAFEFFF785FE70
:103E600000B103E0FFF760FE012070BDFFF75CFECC
:103E70000020FAE770B50446FFF732FEAE20FFF7E8
:103E8000E7FEFFF772FE00B119E02046FFF7E0FE03
:103E9000FFF76BFE00B112E0FFF722FEAF20FFF745
:103EA000D7FEFFF762FE00B109E00020FFF7FFFE3A
:103EB0000546FFF7AAFEFFF737FE284670BDFFF75D
:103EC00033FE0020FAE72DE9F04782460C461746FC
:103ED00000253E46FFF704FEAE20FFF7B9FEFFF7D0
:103EE00044FE00B13FE05046FFF7B2FEFFF73DFE53
:103EF00000B138E0FFF7F4FDAF20FFF7A9FEFFF7B0
:103F000034FE00B12FE029E00020FFF7D0FE80460C
:103F1000FFF758FE0020FFF7CAFE8146FFF752FE6A
:103F200049EA082024F825000020FFF7C0FE80465B
:103F3000FFF748FE0020FFF7BAFE8146012E02D1AE
:103F4000FFF763FE01E0FFF73DFE49EA082004EBBE
:103F500085014880701EC6B2681CC5B2002ED3D140
:103F6000FFF7E2FD00BFFFF7DFFDBDE8F08770B5AA
:103F700005460C460020FFF77DFF0120FFF77AFF82
:103F8000FFF7AEFDAE20FFF763FEFFF7EEFD00B1D9
:103F90002AE02846FFF75CFEFFF7E7FD00B123E0CB
:103FA000FFF79EFDAF20FFF753FEFFF7DEFD00B1E8
:103FB0001AE00120FFF77BFE20700120FFF777FE5B
:103FC00060700120FFF773FEA0700120FFF76FFE05
:103FD000E0700120FFF76BFE20710020FFF767FE05
:103FE0006071FFF7A1FD00BFFFF79EFD70BD10B52A
:103FF00040210920FFF71CFF40210920FFF718FF8F
:1040000010BD08B50121082000F07EFF4FF480406C
:10401000ADF8000048208DF803006946414800F0E3
:10402000B7FCFFF743FDFFF7E2FFC0210220FFF7D7
:10403000FFFE00210320FFF7FBFE00210420FFF715
:10404000F7FE00210520FFF7F3FE00210620FFF711
:10405000EFFE0F210820FFF7EBFE03210920FFF7F9
:10406000E7FE27210A20FFF7E3FE24210C20FFF7BB
:10407000DFFE24210D20FFF7DBFE7F211020FFF75C
:10408000D7FE08BD70B504460D462A462146AE202F
:10409000FFF7ACFE70BD70B504460D462A462146BA
:1040A000AE20FFF784FE70BDFEB506460C4600202C
:1040B0003060206002A9FFF7EEFF02A90120FFF7A0
:1040C000EAFF06236A460721AE20FFF741FE9DF86E
:1040D00000502D043068284430609DF801502D02B6
:1040E0003068284430609DF80250306828443060C1
:1040F0009DF803502D042068284420609DF804504A
:104100002D022068284420609DF80550206828442E
:1041100020603068C0F3110030602068C0F31100E7
:104120002060FEBD000C014030B50C46012213E0BA
:1041300050F82230114605E04D1E50F8255040F849
:104140002150491E002904DD4D1E50F825509D4286
:10415000F2DC40F82130521CA242E9DB30BDF0B560
:1041600003461546012217E051F82240104605E0AB
:10417000461E51F8266041F82060401E002808DDE8
:1041800053F82470461E51F8266053F82660B74253
:10419000EEDC41F82040521CAA42E5DBF0BD2DE9DF
:1041A000F04F05460C4692469846294650462268EE
:1041B000FFF7D5FF4FF0FF3621E0D4F800B0701CB8
:1041C0002060771C18E055F82710701C10B94FF0CC
:1041D000FF3001E055F82600A1EB0009C14503DCE2
:1041E000C8F10000814506DA55F827102268501CF6
:1041F000206045F822107F1C5F45E4DB761C2068B8
:10420000B042DADC28462168FFF78EFFBDE8F08F68
:10421000F0B505461C46059E012000270F6030E0E2
:1042200052F82070B7422BDD52F820C0471E52F8DA
:104230002770BC4524DD012300E05B1CC718A742A2
:1042400007DA52F8207000EB030C52F82CC06745D7
:10425000F3D052F8207000EB030C52F82CC06745E5
:104260000CDD0F680F2F09DAD1F800C00CF101073F
:104270000F6045F82C005F1C384402E0184400E051
:10428000401C671E8742CBDCF0BD2DE9F847054690
:104290000C4616461F46DDE90A9ADDF824803B46A7
:1042A000324621462846CDF80080FFF7B1FF4B4645
:1042B000324621462846FFF772FF2068504501DA52
:1042C000206800E050462060BDE8F8872DE9FF4FE8
:1042D000C6B08846994600204590002406E04698DE
:1042E00050F82410459808444590641C4445F6DB7A
:1042F0004598B0FBF8F04590002408E0469850F847
:1043000024104598081AFE4941F82400641C4445CD
:10431000F4DB002417E0FA4850F824100246601C31
:1043200052F820000144A01C52F820000144E01C77
:1043300052F820000F183846F91707EB91718910D1
:1043400042F82410641CB4F5F87FE4DB00240AE092
:10435000EB49601C51F8200051F82410401AE9493B
:1043600041F82400641CB4F5F77FF1DD00240EE071
:10437000E44951F824200B46611C53F821105018D1
:1043800000EBD07149101A4642F82410641CB4F5B1
:10439000F77FEDDB00251BE0002043902C460BE06F
:1043A000D84850F82410601BD74A32F810204398A0
:1043B00001FB12004390641C681D8442F0DB40F254
:1043C0007A41439890FBF1F0CE4941F825006D1CED
:1043D000B5F5F47FE0DD00204190002410E0C948ED
:1043E00050F82400002803DDC64850F8240003E0FC
:1043F000C44850F824004042419908444190641C4C
:10440000B4F5F77FEBDD40F2EF11419890FBF1F04E
:10441000419005210822419840F2EF13CDE9012196
:104420000090B84A40A912A8FFF72FFF0020119072
:104430004098022821DB01240BE012A850F8241038
:10444000601E12AA52F82000091A1198084411900F
:10445000641C40988442F0DB4098401E119991FB07
:10446000F0F0119041F27071119891FBF0F15498B5
:10447000016001215598017005E0A449549801603C
:10448000002155980170002407E012A850F824007C
:10449000801C30A941F82400641C40988442F4DB5D
:1044A00000240CE0469850F82400954941F8240077
:1044B000489850F82400964941F82400641C44456B
:1044C000F0DB0020429000242DE00120449030A831
:1044D00050F824A04FF080703F900AF10500B0F52D
:1044E000F77F1FDC0A3800281CDD054611E08448F0
:1044F00050F825103F9881420ADA449808B100200C
:1045000044907F4850F825003F9021A840F824505F
:104510006D1C0AF105008542E9DB449810B9429808
:10452000401C4290641C40988442CEDB4298022892
:1045300008DA7648C9F800000021539801704AB0A3
:10454000BDE8F08F00242EE06D4951F824200B4681
:10455000611C53F821100A44A11C53F821100A448D
:10456000E11C53F821105018C11700EB917189100C
:104570001A4642F82410664951F824200B46611C63
:1045800053F821100A44A11C53F821100A44E11CDD
:1045900053F821105018C11700EB917189101A4679
:1045A00042F82410641CB4F5F87FCDDB00200490A1
:1045B0000026002404E0002005A941F82400641C22
:1045C000052CF8DB00240DE021A850F82400B0F5FC
:1045D000FA7F06DD4D48C9F80000002153980170AC
:1045E000ADE7641C42988442EEDB0024AFE04FF05C
:1045F0007F400D900C9021A9601C51F8200051F8CB
:104600002410401A0A2879DD21A850F8245016E019
:104610003B4850F825100C98814204DD384850F88A
:1046200025000C900A953A4850F825100D988142C3
:1046300004DD374850F825000D900B956D1C21A91D
:10464000601C51F82000A842E2DC601C51F82000F8
:104650002F4951F8200021A951F824102C4A52F872
:104660002110401A21A951F824200B99891A484396
:10467000109021A9601C51F8200051F82410411A13
:10468000109890FBF1F021A951F82410204A52F81B
:1046900021100844109011460B9851F820101098E2
:1046A000081A109021A9601C51F82000144951F8F3
:1046B000200021A951F82410114A52F82110401A63
:1046C00021A951F824200A99891A48430F9021A959
:1046D000601C51F8200051F82410411A0F9890FBEB
:1046E000F1F021A951F82410054A52F8211008448C
:1046F0000F9011460B9851F820100BE026E00000B7
:104700002421002064190020F46F000819FCFFFF29
:10471000F42800200F98081A0F900C99109848431D
:10472000C01103900D990F984843C711002F0DDD5C
:10473000052E0BDA039848B1039800EB8000800047
:1047400090FBF7F005A941F82600761C641C4298FE
:10475000401EA0423FF74BAF314605A8FFF7E4FCEF
:10476000304606EBD0714FEA610BBBF1010F0CDD57
:10477000ABF1010105AA52F8211052F82B2088183C
:1047800000EBD0714910049103E005A850F82B000C
:104790000490049802280DDD0498B8280ADA094923
:1047A0000498085C0E900E98C9F8000001215398F7
:1047B000017005E00448C9F8000000215398017019
:1047C00000BFBCE63270000819FCFFFF10B56FF0A7
:1047D000040000F050FE2E4800682E49B0FBF1F0B6
:1047E0002D4908700846007800EB4001C1EBC0106D
:1047F0004FF6FF7101EAC0002849088010BD01464C
:10480000254A12784A434FF0E0235A6100229A6108
:104810001A46126942F001021A6100BF4FF0E0220D
:10482000106900F001021AB100F48032002AF5D0BC
:104830004FF0E022126922F001024FF0E0231A61EA
:1048400000229A6170470146144A12884A434FF089
:10485000E0235A6100229A611A46126942F001026D
:104860001A6100BF4FF0E022106900F001021AB196
:1048700000F48032002AF5D04FF0E022126922F0D5
:1048800001024FF0E0231A6100229A617047000094
:104890007400002000127A009C0000209E0000207E
:1048A00010B54FF4A06000F097FD10BD064880479A
:1048B00006480047FEE7FEE7FEE7FEE7FEE7FEE705
:1048C000FEE7FEE7FEE7FEE7A70F0008ED000008A1
:1048D00010B50446CC48844208D10121042000F0E0
:1048E0002DFB0021042000F029FB46E0C74884424C
:1048F00008D10121082000F021FB0021082000F050
:104900001DFB3AE0C248844208D10121102000F08A
:1049100015FB0021102000F011FB2EE0BD48844261
:1049200008D10121202000F009FB0021202000F007
:1049300005FB22E0B848844208D10121402000F064
:10494000FDFA0021402000F0F9FA16E0B348844255
:1049500008D10121802000F0F1FA0021802000F030
:10496000EDFA0AE0AE48844207D10121801500F03B
:10497000E5FA0021A01500F0E1FA10BD10B5012103
:10498000084600F0DBFA0021012000F0D7FA10BD44
:104990002DE9F041024600250026002000230024D6
:1049A000002791F803C00CF00F0591F803C00CF03C
:1049B000100CBCF1000F03D091F802C04CEA0505C1
:1049C00091F800C0BCF1000F31D0146800202BE03A
:1049D0004FF0010C0CFA00F3B1F800C00CEA03062A
:1049E0009E4220D183004FF00F0C0CFA03F7BC431A
:1049F00005FA03FC4CEA040491F803C0BCF1280F4B
:104A000006D14FF0010C0CFA00FCC2F814C00AE009
:104A100091F803C0BCF1480F05D14FF0010C0CFA1E
:104A200000FCC2F810C0401C0828D1D31460B1F8B3
:104A300000C0BCF1FF0F34DD546800202EE000F10F
:104A4000080C4FF0010808FA0CF3B1F800C00CEAAA
:104A500003069E4221D183004FF00F0C0CFA03F79E
:104A6000BC4305FA03FC4CEA040491F803C0BCF112
:104A7000280F05D100F1080C08FA0CF8C2F81480D0
:104A800091F803C0BCF1480F07D100F1080C4FF0BA
:104A9000010808FA0CF8C2F81080401C0828CED390
:104AA0005460BDE8F0814FF6FF71018002218170F2
:104AB0000421C17070470246002093680B400BB17F
:104AC000012000E0002070470146886880B27047EE
:104AD00002460020D3680B400BB1012000E000200B
:104AE00070470146C86880B27047016170474161F4
:104AF00070470AB1016100E041617047C1607047D1
:104B00004FF480320A4382618161826182698269E5
:104B1000704702460020434B18684FF680731840D8
:104B200040EA021008433F4B186070473E49C86195
:104B30007047F0B50A46002300240021002500F04C
:104B40000046B6F1004F02D1364EF16901E0354E14
:104B50007168C0F3034583B200F44016B6F5401FF8
:104B600008D121F070612F4E766826F070662D4FC7
:104B70007E6012E000F48016B6F5801F06D1032691
:104B800006FA05F4A14341F0706106E0460D3601D6
:104B900003FA06F6B14341F0706122B1460D3601C9
:104BA00003FA06F6314300F00046B6F1004F02D199
:104BB0001C4EF16101E01B4E7160F0BD30B500226A
:104BC0008B071C0F0F2303FA04F2164B08338C10CB
:104BD00053F824309343134C08348D1044F8253097
:104BE00023468C1053F824308C07240F00FA04F469
:104BF00023430C4C08348D1044F8253030BD0A494D
:104C0000DC3108607047000000080140000C0140E2
:104C1000001001400014014000180140001C014038
:104C2000002001400000014000002042DF480068F1
:104C300040F00100DD49086008464068DC49084052
:104C4000DA49486008460068DA490840D7490860F0
:104C50000846006820F4802008600846406820F478
:104C6000FE0048604FF41F0088607047CF49096814
:104C700021F48031CD4A11601146096821F4802168
:104C80001160B0F5803F03D0B0F5802F0ED106E063
:104C9000C649096841F48031C44A116007E0C3493C
:104CA000096841F4A021C14A116000E000BF00BFC3
:104CB000704710B501460022002300204A11012A46
:104CC00002D1BA4C236806E0022A02D1B74C236A0B
:104CD00001E0B64C636A01F01F02012494401C40BD
:104CE0000CB1012000E0002010BD38B5002000907C
:104CF0000024002500BF3120FFF7DBFF05460098A8
:104D0000401C00900098B0F5A06F01D0002DF2D0AB
:104D10003120FFF7CEFF08B1012400E00024204637
:104D200038BD01460020A14A106820F0F80040EA92
:104D3000C10010607047A04908607047024600201B
:104D40009A4B586820F47C1042EA01031843974BB1
:104D50005860704798490866704701460020934A9A
:104D6000506820F003000843506070478F48406847
:104D700000F00C007047014600208C4A506820F07B
:104D8000F00008435060704701460020874A506891
:104D900020F4E06008435060704701460020834AD9
:104DA000506820F4605040EAC1005060704729B15B
:104DB0007E4A527A02437D4B5A7204E07B4A527A11
:104DC00082437A4B5A7270477B49D83108607047EA
:104DD00001460020754A506820F440400843506066
:104DE00070470021714A20321170704A82F82010F9
:104DF000012802D004280AD104E001216B4A2032A4
:104E0000117005E00521694A2032117000E000BFF1
:104E100000BF70476949086070476449096A0143E7
:104E2000624A11627047654944390860704730B57D
:104E300000210022002400235C4D6D6805F00C0168
:104E400021B1042905D0082923D105E05C4D056076
:104E500022E05B4D05601FE0544D6D6805F4701253
:104E6000524D6D6805F48034022505EB92421CB961
:104E7000544D554305600BE04C4D6D6805F400350D
:104E80001DB1504D5543056002E04D4D5543056041
:104E900002E04B4D056000BF00BF444D6D6805F05A
:104EA000F0010909484D6B5C0568DD4045603F4DE8
:104EB0006D6805F4E061090A434D6B5C4568DD40AF
:104EC00085603A4D6D6805F46051C90A3E4D6B5CD2
:104ED0004568DD40C560354D6D6805F44041890B7E
:104EE0003A4D6B5CC568B5FBF3F5056130BD29B182
:104EF0002E4A526902432D4B5A6104E02B4A5269F3
:104F000082432A4B5A61704729B1284A9269024369
:104F1000264B9A6104E0254A92698243234B9A61A9
:104F2000704729B1214AD2690243204BDA6104E07B
:104F30001E4AD26982431D4BDA61704729B11B4A70
:104F4000D2680243194BDA6004E0184AD2688243FF
:104F5000164BDA60704729B1144A12690243134BA9
:104F60001A6104E0114A12698243104B1A617047BA
:104F700012494039086070470F49C86470470B49AF
:104F8000C87170470948406A40F08070074948621C
:104F9000704701460020054A92680A400AB1012084
:104FA00000E00020704701498872704700100240FD
:104FB0000000FFF8FFFFF6FE00004242800442427C
:104FC00000127A0000093D00A0000020B00000207F
:104FD00010B50446FB48844209D101218803FFF73C
:104FE000ADFF00214FF48040FFF7A8FF32E0F64804
:104FF000844209D101214804FFF7ADFF00214FF49D
:105000000030FFF7A8FF25E0F048844209D10121D4
:105010008804FFF7A0FF00214FF48020FFF79BFFDB
:1050200018E0EB48844209D10121C804FFF793FF3F
:1050300000214FF40020FFF78EFF0BE0E54884428B
:1050400008D101210805FFF786FF00214FF48010E9
:10505000FFF781FF10BD2DE9F04786B005460E46EB
:105060000024A24600BFA1460027B08900B100BFBE
:105070002F462C8A4CF6FF700440F08804432C82A3
:10508000AC894EF6F3100440B08831890843718929
:1050900008430443AC81AC8A4FF6FF400440B0891A
:1050A0000443AC8201A8FFF7C2FEC648874202D182
:1050B000DDF810A001E0DDF80CA0A88900F40040A4
:1050C00040B10AEBCA0000EB0A1031684900B0FB9E
:1050D000F1F807E00AEBCA0000EB0A10316889001A
:1050E000B0FBF1F86420B8FBF0F004012009642162
:1050F00001FB1089A88900F4004040B1322000EB88
:10510000C900B0FBF1F000F00700044308E03220D2
:1051100000EB09106421B0FBF1F000F00F00044334
:105120002C8106B0BDE8F0874FF4165101600021D4
:105130008180C18001810C214181002181817047E2
:1051400010B502460020108A4FF2FF0318400B886A
:105150004C8823438C882343CC88234318431082F4
:1051600010BD0021018041808180C180704721B144
:10517000828942F40052828104E082894DF6FF73F5
:105180001A4082817047F0B50346002400260025AE
:10519000002040F66A17B94200D100BF1846C1F39B
:1051A000421401F01F06012707FA06F5012C01D170
:1051B0000C3004E0022C01D1103000E014301AB1A0
:1051C00007682F43076002E00768AF430760F0BD40
:1051D0001AB1838A0B43838202E0838A8B438382E2
:1051E0007047028A4FF6F0731A400282028A0A431D
:1051F0000282704782894FF2FF731A40828182894E
:105200000A438281704721B1828942F00202828181
:1052100004E082894FF6FD731A4082817047028A4A
:105220004FF6DF731A400282028A0A4302827047F5
:1052300021B1028A42F48042028204E0028A4BF6E3
:10524000FF731A4002827047C1F3080282807047E0
:1052500001468888C0F308007047818941F0010148
:1052600081817047028BD2B20283028B42EA012213
:1052700002837047028B02F47F420283028B0A434F
:105280000283704721B1828A42F02002828204E0C8
:10529000828A4FF6DF731A408282704721B1828A78
:1052A00042F01002828204E0828A4FF6EF731A40C5
:1052B0008282704721B1828A42F00802828204E031
:1052C000828A4FF6F7731A408282704721B1828931
:1052D00042F40042828103E08289C2F30E0282819D
:1052E000704721B1828A42F40062828204E0828A9D
:1052F0004FF2FF731A4082827047828A4FF6FB7327
:105300001A408282828A0A438282704721B1828A4D
:1053100042F00202828204E0828A4FF6FD731A4054
:105320008282704702460020B1F5007F00D100BFA5
:1053300013880B400BB1012000E00020704701F4FE
:105340000072B2F5007F00D100BFCA4302807047EF
:1053500070B50246002400230025002040F66A169E
:10536000B14200D100BFC1F3421501F01F03012675
:1053700006FA03F3012D02D19689334006E0022D8F
:1053800002D1168A334001E0968A33400C1201267E
:1053900006FA04F41688344013B10CB1012000E081
:1053A000002070BD10B50022002340F66A14A1420F
:1053B00000D100BF0A1201249440A3B2DC43048050
:1053C00010BD00000038014000440040004800408B
:1053D000004C00400050004031490143314A116007
:1053E000704770B5002100230F22C47804B32D4C00
:1053F000246804F4E064C4F5E064210AC1F1040304
:10540000CA40447804FA03F1847814402143090126
:10541000254C0678A155047804F01F050124AC4002
:1054200005786D11AD0005F1E025C5F8004109E0F2
:10543000047804F01F050124AC401C4D0678761159
:1054400045F8264070BD1A4A0A400243154B1B1FFF
:105450001A60704739B1134A121D12680243114B8A
:105460001B1D1A6006E00F4A121D126882430D4B85
:105470001B1D1A607047042808D14FF0E02109690C
:1054800041F004014FF0E022116107E04FF0E0210C
:10549000096921F004014FF0E0221161704700001A
:1054A0000000FA050CED00E000E400E080E100E01F
:1054B00080FFFF1FA0F14101192900D8203070475B
:1054C00040EA01039B0703D009E008C9121F08C086
:1054D000042AFAD203E011F8013B00F8013B521E06
:1054E000F9D27047D2B201E000F8012B491EFBD27D
:1054F00070470022F6E710B513460A4604461946DF
:10550000FFF7F0FF204610BD30B505462A460B4692
:1055100012F8010B13F8014B08B1A042F8D01CB1EE
:10552000002802D06D1CF1E7284630BDCAB2401EEB
:1055300010F8011F8A4202D00029F9D100207047DB
:10554000421C10F8011B0029FBD1801A704710B5CE
:10555000002200E0521C835C8C5CA34201D1002B32
:10556000F8D1D8B2E1B2401A10BD034611F8012BB0
:1055700000F8012B002AF9D11846704730B50546CE
:105580000020034600E05B1C934205D2EC5CC85C43
:10559000201A01D1002CF6D130BD00000FB400B5A7
:1055A0008DB010A909900B9000914FF0FF300A9038
:1055B00000200C9005480690054807906A4609A807
:1055C0000F9900F065FC0DB05DF814FBAD5E0008AE
:1055D000CB5E00082DE9FF4F087881B09946FF287F
:1055E00005D0491C2D2804D00024002308E0002306
:1055F0000BE00124F9E703EB830300EB4303491CB1
:105600000878FF28F7D104B15B420020009014789D
:1056100001462D2C01D02B2C04D1521C2D2C12D044
:105620000024009400251678FF2E0ED00A24A0FB3B
:1056300004C801FB0481002700FB0711521C16EB74
:105640000C006941EFE70124EBE7994450EA0102BD
:105650000ED00024AA4D2646DFF8A88200F097FD60
:1056600082468B46B9F1000009DAC9F100071BE058
:1056700001980021C0E9001105B0BDE8F08F074690
:1056800012E0F80707D022462B463046414600F08C
:1056900054FA0646884622462B461046194600F024
:1056A0004CFA04460D467F10002FEAD1B9F1000FE5
:1056B000324643465046594602DA00F0F9FC01E012
:1056C00000F03BFA009A0AB181F00041019AC2E968
:1056D0000001D1E72DE9FF4F1F468DB0D7E9014604
:1056E0004FF0FF382E2045464FF000090B90B96966
:1056F0006D1C0E988847396A824688470028F6D183
:10570000BAF1FF3F0AD024F4D064002E11DDBAF1C3
:105710002B0F08D0BAF12D0F0BD102E0404611B08B
:10572000ABE744F48064B9696D1C0E9888478246E3
:10573000761E6946600501D52D2000E02B208DF8EE
:10574000000001F1010B0DF1200809E0B9696D1CA1
:105750000E98884782460F9844F40074761E0560C0
:10576000002E02DDBAF1300FF0D00B998A453ED100
:1057700044F0800406E00F99681CA9F1010944F483
:1057800000740860B9696D1C761E0E9888478246C1
:105790003028F0D02BE00B998A4505D1200603D4A0
:1057A00044F08004761E18E0504601F013F808B368
:1057B0000DF11301761E44F400748B4508D2AAF152
:1057C00030000BF8010B200607D5A9F1010003E01A
:1057D000200602D409F101008146A00502D50F99E7
:1057E000681C0860B9696D1C0E9888478246002EB7
:1057F000D1DC53E0002E51DDBAF1650F02D0BAF1D1
:10580000450F4BD1A00549D5B9696D1C24F44074EE
:10581000761E0E9888478246002E0CDD2B2804D079
:10582000BAF12D0F07D144F48074B9696D1C0E983C
:1058300088478246761EE00501D52D2100E02B2108
:1058400008F8011BCDF82C8021E00DF12901761E0E
:1058500044F4007488450CD2AAF1300010F0FF0027
:1058600088F8000002D10B99884509D908F1010890
:1058700006E0E00501D5244801E042F20F708146C0
:10588000B9696D1C0E98884782460F980560002EF6
:1058900004DD504600F09EFF0028D6D1F9690E982D
:1058A0008847FF208BF8000088F800000020069051
:1058B00007904B466A4608A906A8FFF78BFEA0058D
:1058C00002D46FF001002AE714F0240F0AD0E00799
:1058D00014D1DDE906123868031D3B600068C0E999
:1058E00000120BE0DDE9060100F038FA0146E0079E
:1058F00004D13868021D3A600068016028460EE74E
:10590000000024400000F03FF1D8FFFF80EA0102D0
:1059100010B502F00043400022D04A001FD0010E13
:1059200001EB1261C0F35600C2F3560240F40000CE
:1059300042F40002A0FB022000047F39140400D0CE
:10594000401C50EA124001D44000491EC2B20C066D
:1059500004EBD010401C4008802A02D003E0002055
:1059600010BD20F00100002900DA0020184310BD0E
:1059700030B480EA010202F0004530F0004221F02C
:10598000004013D090B1C30DD40DC2F31601C0F383
:105990001600E41A41F4000140F400027D34914203
:1059A00001D3641C00E04900002C02DA30BC002066
:1059B00070474FF400000023914201D3891A03433A
:1059C00040084FEA4101F7D151B1914202D14FF065
:1059D000004105E002D24FF0010101E06FF001014A
:1059E00003EBC450284430BC00F0CEBA2DE9FE4F82
:1059F000804681EA0300C00F0C46009021F0004170
:105A000023F00045B8EB0200A94105D240462146EB
:105A100090461C460B46024623F00040104347D0F8
:105A2000270DC7F30A00C3F30A510290401A0190F0
:105A300040286BDAC3F3130040F4801B00989246B1
:105A400020B10023D2EB030A63EB0B0B01985946FC
:105A5000C0F14002504600F0E4F906460D465046BB
:105A60005946019A00F0FCF910EB0800614100244E
:105A700087EA115284EAE7731A4340D0009A62B36E
:105A8000019A012A4FEA075215DC001B61EB020163
:105A90004FF0004202EA0752CDE90042001C41F5F6
:105AA000801132462B4600F0B5FA03B0BDE8F08F06
:105AB00040462146F9E7001B61EB0201001C41F55D
:105AC000801300185B412018A2F5001747EB030173
:105AD00040EAD570B6196D4111E06D084FEA3606FF
